:020000040000FA
:10000000C82500203514000089070000FD06000007
:10001000FD060000FD060000FD060000FD060000D4
:10002000000000000000000000000000FD060000CD
:10003000FD06000000000000FD0600003F14000067
:10004000171F0000E91F00009F1F0000AD1E0000E9
:10005000C115000089190000DF1C00002DE9F05FC8
:100060000546002092469B46884606468146402427
:100070001BE0284641464746224600F0A5F8534675
:100080005A46C01A914110D311461846224600F034
:100090008CF82D1A67EB01084F46224601200021FB
:1000A00000F083F817EB00094E41201EA4F1010473
:1000B000DFDC484631462A464346BDE8F09F40EA29
:1000C00001039B0703D009E008C9121F08C0042AD6
:1000D000FAD203E011F8013B00F8013B521EF9D2BD
:1000E0007047D2B201E000F8012B491EFBD27047E5
:1000F0000022F6E710B513460A4604461946FFF7F4
:10010000F0FF204610BD0EB540F2334102910021B0
:10011000CDE900110A460B4600F0ACF803B000BD73
:1001200000F0004230F000400AD0C10D01F56071CE
:10013000C0F3160042EA0151C2084007114370475C
:1001400000200146704701F0004330B421F0004127
:1001500050EA010206D00A0DA2F56072C1F3130144
:10016000002A02DC30BC00207047440F44EAC1047E
:10017000C100E01830BC00EBC25000F035B830B51B
:100180000B46014600202022012409E021FA02F555
:100190009D4205D303FA02F5491B04FA02F52844EF
:1001A000151EA2F10102F1DC30BD202A04DB203A49
:1001B00000FA02F1002070479140C2F1200320FABA
:1001C00003F3194390407047202A04DB203A21FAB8
:1001D00002F00021704721FA02F3D040C2F1200260
:1001E00091400843194670470029A8BF7047401C3A
:1001F000490008BF20F00100704710B4B0FA80FC3D
:1002000000FA0CF050EA010404BF10BC704749B179
:10021000CCF1200421FA04F411FA0CF118BF0121E9
:1002200021430843A3EB0C01CB1D4FEA00614FEAC9
:10023000102042BF002010BC704700EBC350104498
:100240000029A4BF10BC7047401C490008BF20F023
:10025000010010BC704710B5141E73F1000408DAD9
:10026000401C41F1000192185B411A4301D120F07A
:10027000010010BD2DE9F04D92469B4611B1B1FA37
:1002800081F202E0B0FA80F220329046FFF78DFF53
:1002900004460F4640EA0A0041EA0B0153465A461B
:1002A000084313D0114653EA010019D0C8F14002A7
:1002B0005046FFF789FF05460E46504659464246CE
:1002C000FFF773FF084305D0012004E020463946BC
:1002D000BDE8F08D0020054346EAE0762C43374325
:1002E0000A986305E40AA0EB08000022FD0A44EA2C
:1002F00047540A3002D500200146E9E701051019EC
:100300006941DDE9084500196941BDE8F04DA2E702
:100310002DE9FE4F804681EA0300C00F0C46009095
:1003200021F0004123F00045B8EB0200A94105D2BD
:100330004046214690461C460B46024623F00040AC
:10034000104347D0270DC7F30A00C3F30A510290A8
:10035000401A019040286BDAC3F3130040F4801B6D
:100360000098924620B10023D2EB030A63EB0B0BFB
:1003700001985946C0F140025046FFF716FF064665
:100380000D4650465946019A00F07AF910EB0800E4
:100390006141002487EA115284EAE7731A4340D08E
:1003A000009A62B3019A012A4FEA075215DC001B3A
:1003B00061EB02014FF0004202EA0752CDE9004230
:1003C000001C41F5801132462B46FFF753FF03B066
:1003D000BDE8F08F40462146F9E7001B61EB0201C2
:1003E000001C41F5801300185B412018A2F500178E
:1003F00047EB030140EAD570B6196D4111E06D0875
:100400004FEA360645EAC0754FEA0752001B61EB1A
:100410000201001C41F5801149084FEA3000001923
:10042000514132462B4603B0BDE8F04FFFF713BFF2
:100430000098012240000023D0EB020263EBE0733E
:10044000009821464FEAE074B8EB000061EB04012C
:10045000E9E783F000435BE781F0004158E72DE9CD
:10046000FE4F81EA030404F0004421F000410094AF
:100470004FF0000B23F0004350EA01045ED052EA33
:1004800003045BD0C3F30A54C1F30A552C44A4F20D
:10049000F3340194A0FB0254C1F3130141F4801121
:1004A000C3F3130343F4801301FB024400FB034E28
:1004B000840A970A44EA815447EA8357A4FB0768F1
:1004C00002958D0A05FB07854FEA932C04FB0C541B
:1004D0002705029D4FEA065847EA1637B5EB08058F
:1004E0006EEB070C870E920E47EA811742EA8312E1
:1004F000A7FB0201B6EB0B0164EB00042B0D43EAF2
:100500000C335E1844EB1C50DA465146E7FB0201FF
:10051000C5F313044FEA0B3343EA14534FEA043292
:10052000019C43EA0603A4F10C040294009CCDE96B
:1005300000B4FFF79FFE03B0BDE8F08F0020014636
:10054000F9E72DE9F04D81EA030404F0004B21F0B6
:10055000004514464FF0000A23F0004150EA05021E
:1005600020D054EA01021DD0C5F30A570246C5F354
:100570001303C1F31300C1F30A5640F4801543F48A
:100580008013A7EB0608101BD64608F2FD3873EB64
:10059000050002D308F1010801E092185B41B8F1AF
:1005A000000F03DA00200146BDE8F08D00204FF473
:1005B0008011064684460EE0171B73EB050705D332
:1005C000121B63EB050306434CEA010C49084FEA92
:1005D000300092185B4150EA0107EDD152EA030066
:1005E00012D082EA040083EA0501084305D0101BFB
:1005F000AB4106D20122002306E000224FF0004367
:1006000002E06FF0010253101AEB06004CEB0851A8
:1006100010EB0A0041EB0B01BDE8F04DFFF71BBEEC
:10062000C1F30A52C1F3130140F2FF3341F48011C8
:100630009A4202DA00200146704740F233439A4260
:10064000A2F2334202DC5242FFF7BEBDFFF7ADBD5E
:1006500030B5041E71F1000404DB4FF00044404249
:1006600064EB0101141E73F1000405DB1C464FF01E
:100670000043524263EB0403994208BF904230BDED
:10068000202A06DBCB17203A41FA02F043EAE07356
:1006900006E041FA02F3D040C2F120029140084343
:1006A0001946704710B540F23C04C2F2000442F60D
:1006B0002C31C0F20001204600F0E2F842F684310D
:1006C000C0F20001204600F067F900B910BD02A099
:1006D00006A10A2200F06AFF4653505F5355434378
:1006E000455353203D3D2065727200007372632FA5
:1006F00074736E5F6170702E6300000000BE7047FF
:1007000010B540F2E004C2F2000442F6D041C0F25B
:100710000001204600F0F7FA2046BDE8104000F046
:100720000DBC10B540F2C004C2F2000442F65841BC
:10073000C0F20001204600F0E6FA2046BDE8104075
:1007400000F0FCBB70B582B0044640F2AC00C2F2CF
:10075000000001AA214600F060FC0198012801D1A7
:1007600000200EE040F2AC05C2F2000501AE00BF71
:1007700028462146324600F050FC01980028F7D068
:10078000012002B070BD00002DE9F04146F22018B2
:10079000C4F20008B8F80000B8F8201040F2600574
:1007A00001EA0006B7B20024C2F2000527FA04F0FD
:1007B000C00704D055F8241009B1204688470134F9
:1007C0000E2CF3D1A8F81060BDE8F08110B540F20E
:1007D0009804C2F2000442F61841C0F2000120461B
:1007E00000F0D2FB2046BDE8104000F0ACBB00009A
:1007F00040680D280CBF02A0704702F081B900BF0D
:100800005030313520696E74657272757074210DC7
:100810000000000080B50269B2B14FEA727C00228C
:100820006FF0170302F1010E2CFA02F2D207A3F1C6
:1008300002037246F6D00268D21A0A60BCFA8CF241
:100840007244C2F1210200E0002240684A600122A5
:1008500000888A60082202EB40004FF4B072C1E9C0
:1008600003024FF0FF3048614BF27C10C4F27F006E
:1008700000684FF47A6280B20A834861002080BD2C
:100880002DE9F04F81B00D46D5E90937CE6A4160B8
:100890004968836107622B88002704460020C4F260
:1008A000170706F1080207EB4323E0614F0307CA6D
:1008B000236000284FF41073D5E90289D6E900EAD5
:1008C00008BF07F580773F2808BF48F24023002A79
:1008D00018BF4FF430731F43A782EFF310834FF01C
:1008E000010B8BF310882A8800F03F0001F03F01D4
:1008F00041EA002CC2F1100144F20C02C4F20802D9
:1009000010680BFA01F188431060106883F31088B7
:1009100046F2C0102268384010804FEAC931206882
:1009200041EA4801A0F810C041EA4A112068224675
:10093000C181206880F80CE0307E21680138B0FA6F
:1009400080F0400981F8D000686995F8201001F026
:1009500016F9A86995F82110224601F010F9F069FE
:1009600096F82410224601F00AF9306A96F825100C
:10097000224601F004F944F243410020C5F241212E
:100980002061A16001B0BDE8F08F006800EB41007C
:10099000018C002011807047F0B50246D0E90003B9
:1009A00091E8700024F0C04ED3F82CC08480106809
:1009B0004FEA1E438582106806811068C38049F69D
:1009C000FF7000EA1543146800EA1640E3821368DA
:1009D00040F2380458814EF22000C4F20100006851
:1009E000C2F20004C0F302632468C0F3021004FAE8
:1009F00003F323FA00F044F6D353C1F26203A0FBE1
:100A00000303980941F2360300FB03F04DF68363BC
:100A1000C4F21B33D1E90045A0FB0303980C062860
:100A20004FF0060088BF980C45EA04039C0000F1D3
:100A3000010001D4002423E00125EFF3108485F3A5
:100A4000108844F20C05C4F208052E6826F48006CE
:100A50002E602D6843F2000584F31088C4F20F0560
:100A600090262E7014684FF4807584F8DE00CC78E0
:100A7000A4068C6858BF4FF48065C4F340742C44BE
:100A80005B000FD51368022583F8DF00C8788B68F8
:100A900040064FF4007005EA537358BF4FF40060EE
:100AA0001844044310684482C86800283ED0836814
:100AB0001C051C4629D51468A4F890308489156853
:100AC000A5F89C40C4891568A5F89E40046815687F
:100AD000A5F8944049F6FF7505EA14461768C4F373
:100AE0004174A7F89660166886F8924044681668C4
:100AF00005EA1445A6F898401668C4F34174A6F8B0
:100B00009A50156885F893408468A4050FD5D0E9FC
:100B1000054516682C4386F8A640048A1568A5F892
:100B2000A840408A1468A4F8AA0000E000231068D6
:100B3000A0F8903008691368A3F88000DCF8100072
:100B400058B11068BEFA8EF7038823F01F03DB1B31
:100B50001F330380908A1843908244F24340C5F2C9
:100B600041200968D06000201161F0BD818A0268CF
:100B70000020118070470000B0B543F22404C4F295
:100B800008040025C8200121257100F082F8257095
:100B900020780028FCD1207840F00200207000BFAF
:100BA00020788007FCD4002004F8020C14F8020C12
:100BB0000028FBD1002004F11C0100BF11F8102017
:100BC00002F07F0201F8102011F91020002AFBD456
:100BD00001300328F2D1012000F00BF84EF2BB42A5
:100BE0000021C4F2010201201170BDE8B04000F004
:100BF00027B880B50122EFF3108182F3108840F20C
:100C0000B402C2F2000232F810308BB94EF2FE3C50
:100C100042F62433C4F2010CC0F20003BCF800E039
:100C200033F8103043EA0E0343F42543ACF80030A8
:100C300032F81030013322F8103081F3108880BD73
:100C40000122EFF3108182F3108840F2B402C2F265
:100C5000000232F8103023B132F81030013B22F894
:100C6000103032F810208AB94EF2FE3CC4F2010C6A
:100C700042F62432BCF80030C0F2000232F8100014
:100C800043F4254222EA0000ACF8000081F310880A
:100C9000704740F23802C2F20002136801FB00F014
:100CA0004CF60021C3F69A3148F63812C0F24102E0
:100CB000B1FBF3F1904207D24FF47A7200FB02F0DD
:100CC000B0FBF1F0800808E08900B0FBF1F0904241
:100CD00007D24FF47A7100FB01F008B100F04BBD70
:100CE00070474FF0FF3000F046BD7047022818BF34
:100CF000704740F2AC0042F69C31C2F20000C0F2F4
:100D0000000100F07FB92DE9F04182B00D46097C69
:100D1000044600220123032988BF012203FA01F1BE
:100D200022612A7CE16049F20001C4F2160101EB64
:100D300002210020C4E90151D5E90612D5F820802E
:100D4000C4E9051044F21007E261EFF3108283F367
:100D50001088C4F208072B7C4FF000413E6821FA4E
:100D600003F326EA03033B603B6882F310884FF4E9
:100D70002543A2681360A268D062A268D063A2680B
:100D80009064D5E90027AB68032AA2684FEAC353F1
:100D900008BF03F58033D362A2681161A268516174
:100DA000A2689161A1684862A1688862D8F824109D
:100DB000A268D161D8F82810A2681162A1687A1ED1
:100DC0008A66A1684A662968D8F8507001904FF089
:100DD000FF30012900900DD029B968684FF0FF312C
:100DE00001EB500006E0E9686A462046002300F067
:100DF00092FD0098A1684865A16888652968042962
:100E000003D3A168C865A1680866D8F85010019896
:100E1000B9BB98F80010012915D12A68D8F8041038
:100E2000022A03D0032A03D1032205E0092203E0AA
:100E30000922002908BF06220B0143EA811111444F
:100E4000394341F4807798F80810012919D12A68AC
:100E5000D8F80C10022A04D0032A05D14FF44032EE
:100E600008E04FF4102205E04FF41022002908BFDB
:100E70004FF4C0220B0543EA81511144394341F03C
:100E800080776168096A91F84820D30705D00A6C19
:100E9000A368013ADA6491F84820920703D5496CB7
:100EA000A26801391165A16800228A63A168C1F8AE
:100EB0008820D8F8501029B9D8E90B12490341EA23
:100EC00042710F4398F848104FF4A0020029A1681E
:100ED00008BF4FF4AA020A642968012904D1A16855
:100EE0000022CA64A1680A65A268010441EA0060A0
:100EF0005763A168C21C0A63A16801300863D4E982
:100F000002012246C1606869697C00F0BCFED8F825
:100F1000380098F83410224600F0B5FED8F83C00AE
:100F200098F83510224600F0AEFE45F25401C0F2AA
:100F300047010020216002B0BDE8F081D0E9021233
:100F400000204A607047406846F20031C4F2000158
:100F500051F820204EF2001C22F4803241F820206B
:100F600051F8201000F01F0201234009CEF2000CBE
:100F700003FA02F20CEB8003BFF35F8FC3F880210A
:100F80004CF8202000207047F0B54B6802464360C3
:100F900046F20030C4F200004FF0000E50F823C0BB
:100FA00040F823E04B690C78D3608B694FF600570B
:100FB000136144EA0003CFF6FF77147203F807E0E9
:100FC0000D7B0E7C2D010C7A45EAC6162643DE55B4
:100FD000536840F823C0506800280CD449784EF27A
:100FE00000430901CEF20003C15440F23011C2F2B5
:100FF000000141F8202044F25531C0F2490100209F
:101000001160F0BD80B545F25422C5F24F02026076
:10101000084600F09DFE002080BD6FF03F0000EA12
:101020009100C9B200EB810040F60001C4F2080152
:101030004058C0F34001002011607047C8B201233E
:1010400083409BB24FF4803C002A08BF0CFA00F3A7
:101050004FF4FF5000EAD1010822C4F20802002038
:101060008B5070470A780123934013F0060F05D088
:101070000B6CDB681B781B0700F1E0802DE9F04763
:1010800048F20003C4F2110343EA0222D1E90E360A
:101090004FF0000843628378C66223F003035E1CAE
:1010A00086704E68026280F80080C161C0F82880B6
:1010B00016B943F002038370CF6A4EF2001C07F0AA
:1010C0001F034FF0010ECEF2000C0EFA03F30CF1E9
:1010D00080047E0991F8285044F82630BFF34F8FE2
:1010E00046F2003AC4F2000ABFF36F8F5AF8276045
:1010F0002A0126F480364AF827600CF540755AF824
:101100002760EA554A6940F2301902F01F06C2F220
:1011100000090EFA06F6530949F827000F7C44F837
:101120002360BFF34F8FBFF36F8F5AF822303E0119
:1011300023F480334AF822305AF82230AE5449F86A
:101140002200CA690B7E02F01F060EFA06F6570946
:1011500044F82760BFF34F8FBFF36F8F5AF82260B8
:101160001B0126F480364AF822605AF82260AB54FC
:1011700049F822004A6A91F8203002F01F060EFA60
:1011800006F6570944F82760BFF34F8FBFF36F8F00
:101190005AF822401B0124F480344AF822405AF8BD
:1011A0002240AB5449F82200EFF310828EF31088EE
:1011B00044F204050B78C4F208054FF000442E6891
:1011C00024FA03F326EA03032B602B6882F31088CA
:1011D000026A82F80280026A82F80480026A82F857
:1011E0000980026A82F80A80026A82F80B80026A29
:1011F000A2F81A800A780EFA02F340F2192213427A
:1012000002D0036A4024DC74036A06241C770B783E
:101210000EFA03F3134203D0026A4FF47843938229
:10122000D1E90163CA684FEAC20242EA03123EB141
:10123000032E08BF42F04002F22602E00322ADE096
:10124000E226036A02271A70026A002596710A6C68
:10125000936907EA4307082B036A08BF0A275F73ED
:10126000066AD2E9013735721668DB0126F00106FD
:10127000022EDEB267F345160AD1036AFF275F70BC
:101280001268022A026A08BF46F01006D67117E0FB
:10129000036ADE71D268036A97785F7057781E78A8
:1012A00007F0030706F0FC0637441F70D7789F74D9
:1012B000DF79127807F0A30702F05C023A44DA7192
:1012C0000022C369C0E90322C0E90522D1F840E049
:1012D0005B699EF800105AF8234003F01F0524F4C0
:1012E00080344AF823405AF82340012404FA05F6D2
:1012F0000CF5C0755B09BFF35F8F45F823604CF8B0
:101300002360C369DB6A5AF8236026F480364AF802
:1013100023605AF8236003F01F0604FA06F65B09FF
:10132000BFF35F8F45F823604CF82360C369DB6926
:101330005AF8236026F480364AF823605AF823606E
:1013400003F01F0604FA06F65B09BFF35F8F45F84A
:1013500023604CF82360C3695B6A5AF8236026F463
:1013600080364AF823605AF8236003F01F06B44021
:101370005B09BFF35F8F45F823404CF823401C23E3
:10138000076A63F39F01B970DEF8141044F6551331
:10139000C5F24333C0E90131BDE8F047104670475C
:1013A00080B5D0F820E09EF802C00CF07B038EF8E8
:1013B0000230837803F00303A2EB030C0B44026AB0
:1013C000C0E9033C937843F080039370827802F085
:1013D0000302022A05D10988006A41F47E41C181D5
:1013E00002E00978006AC170002080BD80B582B03B
:1013F00040F23C00C2F20000FFF7B8FB40F2501090
:10140000C2F2000001780129FCD10021017040F2F4
:101410003C00C2F200000DF106026FF00201FFF77E
:10142000B4FABDF80600FEF76EFE41EC100B02B0F8
:1014300080BD000000F022F800F09CFBFEE740F2C7
:10144000A410C2F2000001680131016070474EF241
:101450002000C4F201008179006840F2A812C2F2B3
:101460000002C0F3026052F8211021FA00F040F2AD
:101470003801C2F2000108607047000070B54EF6F6
:10148000085040F20004CEF200004FF47001C0F2A8
:101490000004C0F8801004600020FFF727FC00F073
:1014A00093F80120FFF722FC206840F27011A0F5AC
:1014B000806080F30A8840F23800C2F20000C0F277
:1014C0000001FEF715FE40F2000042F6286140F2EE
:1014D0003802C2F20000C0F20001C0F20002FEF7C2
:1014E000EEFD40F25C0440F25C00C0F20004C0F289
:1014F0000000001B8510012D06DB264656F8040B64
:1015000020448047013DF9D1FFF7A1FFFFF734FBED
:101510000320FFF76EFB40F610510020C4F20801D3
:101520004FF6FF7221F8102001300828FAD103206D
:10153000FFF786FB0320FFF75CFB0420C4F20E00DC
:101540000021016041608160C1600320FFF778FBEA
:101550000220FFF7CBFB00F0C9F80020BDE8704087
:1015600000F0C3B880B540F2001042F64851C2F214
:101570000000C0F20001FFF775FD00B980BD02A0B8
:1015800006A10C2200F012F84653505F5355434316
:10159000455353203D3D2065727200007372632FE6
:1015A000756172745F6170702E63000000BE00BFD1
:1015B000FEE740F25010C2F20000012101707047B6
:1015C000002000F008BB0000F0B581B04EF2FE3400
:1015D000C4F201044AF2035020804CF20010C4F21D
:1015E00001000121818000BF81880029FCD10121F7
:1015F000018040F2A81542F6005041F20022C2F2EA
:101600000005C0F23110C0F27A02C5E9000241F6CD
:1016100000304FF40041C0F2B700C5E902104EF2AD
:101620000010C0F2F5504EF220062961C4F2010606
:101630006861B079316855F82000C1F3026140F269
:101640003807C840C2F200073860202060750920C2
:1016500086F8820094F8820018B994F88300800715
:101660003ED094F8820058B9012084F88200C82046
:101670000121FFF70EFB00BF94F882000128FBD187
:10168000002084F8830084F882000020B07400BF3A
:10169000307F0007FCD543F2021041F22121308156
:1016A0000020C1F20211B07231600321B171B27930
:1016B000336855F82220C3F30263DA403A6042F2FD
:1016C0000802C4F20002F12313711070F0201071AF
:1016D0008320B177B0774FF42540208001B0F0BD72
:1016E0004FF47A70FFF701FBCFE7704770B584B015
:1016F00048F248060320C4F20006FFF77AFA6FF0BA
:10170000FF0042F63C4430604FF0FF300021C0F251
:1017100000040122CDE9020054F8213002FA01F55B
:10172000002B18BFA84301310729F5D14EF28032B2
:101730000190002001A9CEF2000200BF51F8203034
:1017400006EB8005AB6242F8203001300328F5D16A
:101750000320FFF775FA46F200310020C4F20001C1
:1017600054F820200AB141F820200130072804BF96
:1017700004B070BDF4E701380028FCD170470000C8
:101780002DE9F04F81B00446008800285AD043F27A
:1017900040084EF2BB4B0025C4F208080FF2AC0A19
:1017A000C4F2010B4FF00109002700BF60685AF82E
:1017B000272000EBC500416891423CD100689BF8AE
:1017C000001000F0B85009FA07F6B0F1807F06EA81
:1017D000010015D150B90120FFF70BFA9BF800006A
:1017E00030438BF800000120FFF72AFA18F91700A0
:1017F000002820D418F8170040F0800015E000BF42
:1018000050B10120FFF7F5F99BF80000B0438BF8C9
:1018100000000120FFF714FA18F91700B0F1FF3F9C
:1018200009DC18F8170000F07F0008F81700C8203E
:101830000121FFF72EFA0137032FB7D12088013598
:101840008542B1D301B0BDE8F08F00BF02040000B3
:10185000030400000404000080B582B0019040F24F
:101860000010C2F2000001A90122FFF799FD40F229
:10187000A010C2F2000000BF01780029FCD00021B6
:101880000170019802B080BD80B582B040F23C008A
:10189000C2F20000FFF76AF940F25010C2F20000F5
:1018A00001780129FCD10021017040F23C00C2F214
:1018B00000000DF106020121FFF767F8BDF80600F0
:1018C0009FED061A00EE100AB8EE400A20EE010A5B
:1018D0009FED031A80EE010A02B080BD33335340FE
:1018E00000F07F45406800B1704740F29810C2F2A6
:1018F000000001680131B1F5FA7F0160F4D140F2D6
:10190000A111C2F200018A78B2FA82F252098A70F9
:10191000002101607047B0B5D0F808E0DEF86840FB
:1019200004F1010421B1A14202D2481E1060B0BDF1
:101930004FF0000CA14238BF4FF0010C10240029D9
:1019400018BF0121DEF834E004EA031340682EFAE0
:1019500003F3046803F00C000438B0FA80F0400987
:10196000032C03F0100E4FF0010588BF85EA1E100E
:1019700001431CBF80F0010050EA0C0001D102209D
:1019800000E003205060B0BD10B584B0EFF30380D9
:1019900046F200316FF35F201038C4F2000151F8B5
:1019A000202040F2301322F4803241F82020C2F28D
:1019B000000351F8202053F8204062681268012A81
:1019C0001FD1D4E902239360A26800239364A26824
:1019D000D364A268136551F8202022F4803241F8C4
:1019E000202051F8201000F01F01012202FA01F11D
:1019F0004EF28022BFF35F8F4009CEF2000242F820
:101A000020106169A1B1A06930B1D0E900C283683A
:101A10000393CDE901C200E001A8E369002242601E
:101A2000826003608847A06910B101AB0ECB0EC085
:101A300004B010BD4FF47A7000F01AFB00F008FA01
:101A4000FEF7C4FEFEF72EFEFEF75AFEFEF769FE15
:101A5000FFF788FD03A001F053F800BF00F000FA83
:101A6000FCE700BF2F2A73797374656D5F696E6937
:101A7000742A2F0D0000000080B500F02AF840F213
:101A80004D1CC2F2000C40F24F129CF80030C2F222
:101A90000002107083F0FF0240F24C110240C2F2CB
:101AA00000010A7023EA000140F24E13C2F2000363
:101AB000022A19708CF8000018BF80BD40F2541043
:101AC000C2F20000016801318A1E18BF0A46026096
:101AD00080BDB0B540F20B10FEF734FE044600287E
:101AE00018BF01244FF48670FEF72CFE0325002852
:101AF00008BF65000D20FEF725FE002818BF04254D
:101B00002846B0BDB0B5044600200021225C8240CA
:101B1000D2B20130042841EA0201F7D1FF2908BFFF
:101B2000B0BD40F2AC052278C2F200052846022181
:101B3000FFF784FA6278284640F20311FFF77EFA35
:101B4000A27828464FF48271BDE8B040FFF776BA1C
:101B500010B540F2A114C2F200042046FFF7D2FFF4
:101B60000020208040F25410C2F2000000680121E1
:101B7000215410BD80B5FFF75DFF002080BD002817
:101B800028D44EF2001CCEF2000C090100EB0C032D
:101B900083F8001340F23011C2F2000141F8202016
:101BA00046F20031C4F2000151F82020012322F452
:101BB000803241F8202051F8201000F01F02400927
:101BC00003FA02F20CEB8003BFF35F8FC3F88021AE
:101BD0004CF8202070472DE9F04190B0EFF30381DD
:101BE00040F230126FF35F21C2F2000202EB81017A
:101BF00046F2C02251F8404CEFF303816FF35F21AE
:101C0000C4F2000252F8213023F4803342F821302C
:101C100052F8211001906068A1690088226AADF82D
:101C2000000000200390029251B3E069C0B100F1BE
:101C3000140890E80E5098E8600108AF87E80E504D
:101C4000CDE90D56059D9DE8CE00456180E8CE00AA
:101C5000DDE90621CDF83C80C0E90621A16900E05C
:101C600068468847E06958B1DDE90C65DDE90E4C4E
:101C700008AF8ECFC0E9046580E88E00C0E9064C4D
:101C800010B0BDE8F081002828D44EF2001CCEF23E
:101C9000000C090100EB0C0383F8001340F2301133
:101CA000C2F2000141F8202046F20031C4F20001E6
:101CB00051F82020012322F4803241F8202051F8ED
:101CC000201000F01F02400903FA02F20CEB80031F
:101CD000BFF35F8FC3F880214CF82020704770B5A8
:101CE00082B0EFF3038046F200356FF35F20A0F17E
:101CF000100440F23010C2F2000050F82400C4F288
:101D00000005017A4FF600522943CFF6FF72895C35
:101D100001F00306032E07D055F8241021F480317A
:101D200045F8241055F82410C16829B1027A0069D9
:101D3000CDE9000268468847032E07D155F82400F4
:101D400020F4803045F8240055F8240002B070BD1E
:101D500070B50446FFF714FD40F2BC0CEFF31080A1
:101D6000012181F31088C2F2000CDCF8001039B9AF
:101D700040F60351C4F2080100220A7040220A70A2
:101D8000DCF800100131CCF8001080F310882088B6
:101D900018B340F6000E0021C4F2080E606800EB94
:101DA000C10250F831305268DD034FEA1220D2B23E
:101DB0000BD50EEB801555F8226026F4803645F8D9
:101DC000226023F4803645F822600EEB801001314A
:101DD00040F8223020888142E0D30120EFF31081C7
:101DE00080F31088DCF8000020B1DCF80000013836
:101DF000CCF80000DCF8000038B940F60350C4F21B
:101E00000800002202708022027081F3108870BDE9
:101E1000B0B584B00446806A40B1D0E900CED0E9C4
:101E20000253CDE900CECDE9025300E06846E369F4
:101E3000D4F824C01B78E56AC0E90032C0E9021575
:101E4000E047A06A10B19DE82E002EC004B0B0BDDE
:101E500040F29410C2F2000004210180704700009B
:101E6000F0B581B040F29414C2F200042088D8B1D9
:101E700040F2080140F2A416C2F20001C2F20006CC
:101E800001F108053168002755E901321A449142F1
:101E900005D355F8080C2960804731682088013740
:101EA000874205F10C05EFD301B0F0BDB0B5EFF3FB
:101EB00003806FF35F20A0F1100540F23010C2F2F2
:101EC000000050F825008178036A01F0030102291F
:101ED00012BF5979198A6FF35F211A79D40602F07B
:101EE000380203D51C7FE40708BF40321C7904F098
:101EF000C7041C71436A0BB1FFF78AFF46F200303A
:101F0000C4F2000050F8251021F4803140F825106B
:101F100050F82500B0BD10B582B0EFF3038040F259
:101F2000FC7101EA800046F2C021C4F2000142586F
:101F300022F48032425040F23012C2F20002415884
:101F4000104450F8404CA07800F00302206A022AA6
:101F500012BF4179018A6FF35F21A069019198B1A5
:101F6000606901A9FEF7ABF8A0786169A26900F089
:101F700003000144101A6161A0610ED1606A60B172
:101F800020460021012203E0606A30B1204604228D
:101F900002B0BDE81040FFF73BBF02B010BD10B566
:101FA000EFF303806FF35F20A0F1100440F23010D4
:101FB000C2F2000050F82400016A8A7802F07B0225
:101FC0008A70416A19B100210222FFF721FF46F20F
:101FD0000030C4F2000050F8241021F4803140F8A1
:101FE000241050F8240010BDEFF3038040F2FC7180
:101FF00001EA800046F2C021C4F20001425822F4F6
:102000008032425040F23012C2F200024158104475
:1020100050F8400CC1694A6B0169C2B9C1B18178FD
:1020200001F00302C168022A05D10988026A41F45D
:102030007E41D18102E00978026AD170817802691B
:1020400001F00303D11AC26801611A44C26071B978
:10205000016A8A7802F07B0204328A70416A0029A0
:102060004FF00001C1601CBF8022FFF7D1BE704756
:1020700040F23801C2F200010968B1FBF0F0411EE4
:102080000020B0EB116F18BF70474EF21002CEF275
:10209000000251604EF62351CEF20001F0230B7086
:1020A000906007201060704780B52DED028B88B0DE
:1020B000FFF79CF951EC100BFEF745F808EE100AFB
:1020C00040F23C00C2F2000001A9FEF7A3FB9DED27
:1020D000060A9FED0E1AB8EE400A9FED0D2A20EE7B
:1020E000010A28EE011A20EE020A21EE021A31EE50
:1020F000400A9FED081A80EE010A9FED071A30EEA4
:10210000010A08B0BDEC028B80BD00BF33335340E1
:10211000000080396F12833B0000FE4241680229B3
:1021200011D0042918BF704740F29C11C2F200017F
:102130000A688068531C0B6040F25411C2F200011F
:1021400011440871704740F2A010C2F20000012152
:102150000170704710B5FFF7A7FF40F25414C2F2A8
:10216000000484ED0E0AFFF78FFB0DA084ED0F0A2B
:1021700000F0C6FCA06BFDF7D3FF02460DA00B4696
:1021800000F054F8E06BFDF7CBFF024610A00B46C1
:1021900000F04CF813A0BDE8104000F0B1BC00BF47
:1021A0002A2A2A2A2A2A424547494E2A2A2A2A2AFC
:1021B0002A0D00004350552054656D70657261749E
:1021C0007572653A2025302E32660D0A0000000037
:1021D00041444320646174613A25302E32660D0A11
:1021E000000000002A2A2A2A2A2A2A454E442A2A9E
:1021F0002A2A2A2A2A0D000010B540F25414C2F2ED
:102200000004207918B1211D06A000F00FF8201D50
:102210003221FDF76DFF40F29C10C2F20000002158
:10222000016010BD25730D0A000000000FB4054BBE
:1022300010B503A9044A029800F0CAF810BC5DF872
:1022400014FB000059180000000000202DE9FF5F7A
:1022500082B00021DDE90430020DDDF840B0034317
:1022600018D044F61050A2F2FF32424315141198D0
:1022700001281FD0A5EB0B00401C5FEA000A4FF0BD
:1022800000064E4FDFF83891B046504615D5CAF1DA
:10229000000413E0119801244AA3012801D16FEA38
:1022A0000B010298119AC0E90031C0E9024206B060
:1022B000BDE8F09FCBF10000DFE704460021404A73
:1022C000491842EB0450CDE9001012E0E00707D0B6
:1022D00032463B4640464946FEF7C1F880468946AD
:1022E00032463B4610461946FEF7B9F806460F46F9
:1022F0006410002CEAD1DDE90401DDE90023BAF124
:10230000000F06DAFEF7ABF842464B46FEF7A7F899
:1023100005E0FEF716F942464B46FEF712F9044671
:102320000E460022284BFEF793F903D84FF0FF30FA
:10233000014607E00022254B20463146FDF7E8FF25
:10234000FEF76EF9102409E0002C0ADB0A220023B4
:10235000FDF784FE039B30321A55641E50EA0102D9
:10236000F2D1641C039AC4F111031444119A012A96
:1023700003D0012208430DD10AE0084304D0002015
:102380004FF0110B119072E7A3EB0B056D1E0DE0E2
:102390005B4504DD4FF0000205F1010504E003DABE
:1023A0004FF00002A5F10105002AECD00298119926
:1023B000C0E90231C0E9004579E70000000014409F
:1023C0000000F03F300000000000F0430000E03F5C
:1023D0002DE9FF4F95B09B468946064600250FE242
:1023E000252877D100242746F84A0121059400E0EA
:1023F000044316F8013F203B01FA03F01042F7D1E5
:1024000030782A2811D06FF02F033078A0F13002F5
:10241000092A16D8059A44F0020402EB820203EB63
:1024200042021044761C0590EFE759F8042B059200
:10243000002A03DA504244F40054059044F00204A8
:10244000761C30782E2816D116F8010F44F00404BB
:102450002A280DD06FF02F023078A0F13003092B1D
:1024600009D807EB870302EB4303C718761CF3E791
:1024700059F8047B761C30786C280FD006DC4C2889
:1024800017D068280DD06A2814D104E0742810D021
:102490007A280FD10DE044F400140AE044F48014CB
:1024A00001E044F440147278824202D104F58014B1
:1024B000761C761C307866280BD013DC582877D031
:1024C00009DC002875D04528F6D04628F4D04728E6
:1024D0001AD19DE118E0632835D0642879D06528A9
:1024E00012D195E1702873D008DC6728F1D06928F3
:1024F0006FD06E280DD06F2806D1B5E073282CD090
:10250000752875D0782874D05A46179990476D1C55
:1025100075E1C4F30250022809D003280DD0D9F880
:10252000001004280DD00D6009F1040967E1D9F805
:102530000010EA17C1E90052F6E7D9F800100D8043
:10254000F2E70D70F0E719F8041B8DF80010002079
:102550008DF80100EA46012003E059F804AB4FF082
:10256000FF3061074FF0000102D40DE008F10101D6
:102570008846B9420FDA8045F8DB1AF808100029BE
:10258000F4D108E008F1010188468142FADB1AF82B
:1025900008100029F6D105985B46A0EB08072146F4
:1025A0003846179A00F094FA284400EB080507E033
:1025B0004DE029E10DE01AF8010B5A4617999047B2
:1025C000B8F10108F7D25B4621463846179A13E165
:1025D00042E00A220092C4F302524FF0000A022A9B
:1025E00008D059F804CB032A4FEAEC710AD00DE069
:1025F00029E02AE009F1070121F00702F2E802C10F
:10260000914609E00FFA8CFC4FEAEC71042A03D1E1
:102610004FFA8CFC4FEAEC71002907DA0A460021D8
:10262000DCF1000C61EB02012D2202E0220504D551
:102630002B228DF80420012203E0E20701D02022A2
:10264000F7E7904659E00A2102E010220DE0102140
:102650004FF0000A00910BE010224FF0000A44F006
:1026600004040827009203E008224FF0000A0092B9
:10267000C4F30252022A05D059F804CB0021032AE0
:1026800008D009E009F1070121F00702F2E802C1D0
:10269000914605E01FFA8CFC042A01D10CF0FF0CD6
:1026A0004FF00008220728D5702806D0009B83F041
:1026B000100353EA0A0305D00EE040228DF80420EF
:1026C000012208E05CEA010206D030228DF80420E5
:1026D0008DF8050002229046009B83F0080353EA20
:1026E0000A030AD15CEA010201D1620705D5302252
:1026F0008DF804204FF001087F1E582804D034A024
:1027000003900EA802900DE036A0F9E7534660460C
:10271000009AFDF7A3FC84460398825C0298401E51
:10272000029002705CEA0100F0D1029806A9081A32
:1027300000F1200A600702D524F4803400E001276C
:10274000574502DDA7EB0A0000E0002000EB0A017C
:10275000009005984144401A0590E00306D45B467A
:102760002146179A059800F0B3F90544002706E0C2
:1027700001A85A46C05D179990476D1C7F1C4745BC
:10278000F6DBE0030CD55B462146179A059800F06E
:102790009FF9054404E030205A46179990476D1C74
:1027A0000099481E00900029F5DC08E00298029983
:1027B0005A460078491C0291179990476D1CBAF14E
:1027C0000001AAF1010AF1DC65E10000092801001D
:1027D0003031323334353637383961626364656697
:1027E0000000000030313233343536373839414259
:1027F000434445460000000000F058F90544761CAB
:10280000307800287FF4ECAD19B02846BDE8F08F91
:10281000620700D4062709F1070222F0070CFCE842
:102820000223E14603F000485FEA080C02D00FF2F1
:10283000702C0DE05FEA045C02D50FF2682C07E013
:102840005FEAC47C02D00FF2602C01E0AFF2700CA2
:102850004FF0FF3823F00043CDF850C065280CD06E
:1028600006DC452809D046281DD047283DD13DE04B
:10287000662818D067287ED138E00021112F01DBAF
:10288000112000E0781CCDE9000106A90EA8FFF791
:10289000DDFCDDE90F010E9A03910021009207F1A2
:1028A000010A04914DE04FF000400097CDE901107E
:1028B00006A90EA8FFF7CAFCDDE90F0203920E9BE2
:1028C00011990022DDF80CA00093049211B9791C33
:1028D00000EB010AB7EB0A0004D4C0F1FF3007F1A6
:1028E000010A0490AAEB0700019044E0012F00DAEE
:1028F00001270021112F01DD112000E03846CDE92C
:10290000000106A90EA8FFF7A1FCDDE90F010E9A50
:102910000391002104910092BA4621070CD4039937
:10292000514500DA8A46BAF1010F05DD009AAAF195
:102930000101515C302908D0B84202DA10F1040FCD
:1029400006DA0121CDE9011015E0AAF10101E9E75C
:10295000002805DC049901440491AAEB000102E07F
:10296000411C514500DD8A460499401A401C0190E3
:102970004FF000400290200704D40198504501DB3D
:10298000CDF8048000208DF84F0002980DF14F071C
:10299000B0F1004F25D02B200E9002984FF0020886
:1029A00000280CDA404202902D200E9007E00A2108
:1029B0000298FDF7E4FB3031029007F8011DB8F1F1
:1029C0000001A8F10108F2DC02980028EFD1791E7D
:1029D0000E980870307800F0200040F0450007F8AD
:1029E000020D12A8C01B00F107081498007800B16E
:1029F000012000EB0A01019801EBE07105984144C8
:102A0000401A401E0590E00306D45B462146179A03
:102A1000059800F05DF805441498007818B15A46FE
:102A2000179990476D1CE00324D55B462146179A01
:102A3000059800F04DF805441CE00498002807DBD9
:102A4000DDE90301884203DD0098405C179901E04D
:102A5000179930205A469047049805F10105401C0B
:102A600004900198401E019004D12E205A461799D7
:102A700090476D1CBAF10001AAF1010ADDDC05E006
:102A800017F8010B5A46179990476D1CB8F10001D1
:102A9000A8F10108F4DC5B462146179A0598ABE6DD
:102AA0002D0000002B000000200000002DE9F04167
:102AB000044600251E461746880404D405E039461E
:102AC0002020B0476D1C641EF9D52846BDE8F08172
:102AD0002DE9F041044600251E469046C80301D565
:102AE000302700E02027880404D505E04146384619
:102AF000B0476D1C641EF9D52846BDE8F081000082
:102B000010B5044601E0FEF7A7FE14F8010B0449D6
:102B10000028F8D1BDE810400A20FEF79DBE000055
:102B2000000000200100020008001000000000006A
:102B30000000000000000000000000000F00000086
:102B400004000000DFFFFFFF0000000002FF0000A4
:102B5000B3150000000000005C2B00000000000026
:102B6000010000003F0000003F00000000000000E6
:102B70000000000000000000DFFFFFFFDFFFFFFF9D
:102B8000FFFF000002000020000000000000000025
:102B90000000000000000000001800000E0000000F
:102BA000A82B0000000000000080000000000000D2
:102BB0000400000002000000000000000D00000002
:102BC000000000000E000000004000000F000000A8
:102BD00000000103000100000400000003010000E8
:102BE00004000000040100000000010008010000D2
:102BF0000000010509010000000001050A010000B4
:102C0000000000000B010000000000000C010000AB
:102C100000000100000300000D0400000600000099
:102C2000010000000300000000000000F1070000A8
:102C300000000000382C000000000000B601000079
:102C4000B7010000B8010000B901000060010000F8
:102C5000C60000000E000000000000007017000019
:102C600000000000B80B000000020000050000009A
:102C7000E5180000000000007C2C000000000000AF
:102C80000000000000000000000000000000000044
:102C90000000000000000000000000000000000034
:102CA0000000000000000000000000000000000024
:102CB000FFFF0000DFFFFFFFDFFFFFFF000000005E
:102CC0000000000000000000000000000000000004
:102CD000000000007017000000000000B80B0000AA
:102CE00005FF0000DFFFFFFF000000000000000004
:102CF000F42C0000000000000000000001000000B3
:102D000000000000000000000000000000000000C3
:102D100000000000000000000000000000000000B3
:102D20000000000000000000FFFF0000DFFFFFFFC9
:102D3000DFFFFFFF000000000000000000000000B7
:102D40000000000000000000090000000200000078
:102D50000000000000000000020000000000000071
:102D6000020000000100000002000000020000005C
:102D7000020000000300000000000000000000004E
:102D80001D210000000000008C2D0000000000004C
:102D90000100000000000000040000200F000000FF
:102DA000FFFF000000000000000000000000000025
:102DB000FFFF00000000000000540000000002209F
:102DC0000000000800800000000002200000000851
:102DD000000000000000002000000905352E392EFB
:102DE00030004275696C7420776974682052656E92
:102DF0006573617320416476616E63656420466C1F
:102E0000657869626C6520536F66747761726520BE
:102E10005061636B6167652076657273696F6E20C0
:102E2000352E392E30000000000000004400019DC6
:102E3000511B00006400000000000000791A00002F
:102E40006400000000000000F9210000FA0000000A
:102E50000000000055210000D00700000000000025
:020000040100F9
:10A10000FFFFFFFFFFFFFFFFFFFFFFFFFFFFFFFF5F
:10A11000FFFFFFFFFFFFFFFFFFFFFFFFFFFFFFFF4F
:10A12000FFFFFFFFFFFFFFFFFFFFFFFFFFFFFFFF3F
:10A13000FFFFFFFFFFFFFFFFFFFFFFFFFFFFFFFF2F
:10A14000FFFFFFFFFFFFFFFFFFFFFFFFFFFFFFFF1F
:10A15000FFFFFFFFFFFFFFFFFFFFFFFFFFFFFFFF0F
:10A16000FFFFFFFFFFFFFFFFFFFFFFFFFFFFFFFFFF
:10A17000FFFFFFFFFFFFFFFFFFFFFFFFFFFFFFFFEF
:020000040100F9
:10A20000FFFDFFFFFFFFFFFFFFFFFFFFFFFFFFFF60
:10A21000FFFFFFFFFFFFFFFFFFFFFFFFFFFFFFFF4E
:10A22000FFFFFFFFFFFFFFFFFFFFFFFFFFFFFFFF3E
:10A23000FFFFFFFFFFFFFFFFFFFFFFFFFFFFFFFF2E
:10A24000FFFFFFFFFFFFFFFFFFFFFFFFFFFFFFFF1E
:10A25000FFFFFFFFFFFFFFFFFFFFFFFFFFFFFFFF0E
:10A26000FFFFFFFFFFFFFFFFFFFFFFFFFFFFFFFFFE
:10A27000FFFFFFFFFFFFFFFFFFFFFFFFFFFFFFFFEE
:10A28000F8F8FFFFFFFFFFFFFFFFFFFFFFFFFFFFEC
:10A29000FFFFFFFFFFFFFFFFFFFFFFFFFFFFFFFFCE
:10A2A000FFFFFFFFFFFFFFFFFFFFFFFFFFFFFFFFBE
:10A2B000FFFFFFFFFFFFFFFFFFFFFFFFFFFFFFFFAE
:10A2C000FFFFFFFFFFFFFFFFFFFFFFFFFFFFFFFF9E
:10A2D000FFFFFFFFFFFFFFFFFFFFFFFFFFFFFFFF8E
:10A2E000FFFFFFFFFFFFFFFFFFFFFFFFFFFFFFFF7E
:10A2F000FFFFFFFFFFFFFFFFFFFFFFFFFFFFFFFF6E
:0400000500001435AE
:00000001FF
